{
  "contractName": "CrowdBank",
  "abi": [
    {
      "constant": true,
      "inputs": [
        {
          "name": "",
          "type": "address"
        },
        {
          "name": "",
          "type": "uint256"
        }
      ],
      "name": "loanMap",
      "outputs": [
        {
          "name": "",
          "type": "uint256"
        }
      ],
      "payable": false,
      "stateMutability": "view",
      "type": "function"
    },
    {
      "constant": true,
      "inputs": [
        {
          "name": "",
          "type": "uint256"
        }
      ],
      "name": "loanList",
      "outputs": [
        {
          "name": "borrower",
          "type": "address"
        },
        {
          "name": "state",
          "type": "uint8"
        },
        {
          "name": "dueDate",
          "type": "uint256"
        },
        {
          "name": "amount",
          "type": "uint256"
        },
        {
          "name": "proposalCount",
          "type": "uint256"
        },
        {
          "name": "collected",
          "type": "uint256"
        },
        {
          "name": "startDate",
          "type": "uint256"
        },
        {
          "name": "mortgage",
          "type": "bytes32"
        }
      ],
      "payable": false,
      "stateMutability": "view",
      "type": "function"
    },
    {
      "constant": true,
      "inputs": [],
      "name": "owner",
      "outputs": [
        {
          "name": "",
          "type": "address"
        }
      ],
      "payable": false,
      "stateMutability": "view",
      "type": "function"
    },
    {
      "constant": true,
      "inputs": [
        {
          "name": "",
          "type": "uint256"
        }
      ],
      "name": "proposalList",
      "outputs": [
        {
          "name": "lender",
          "type": "address"
        },
        {
          "name": "loanId",
          "type": "uint256"
        },
        {
          "name": "state",
          "type": "uint8"
        },
        {
          "name": "rate",
          "type": "uint256"
        },
        {
          "name": "amount",
          "type": "uint256"
        }
      ],
      "payable": false,
      "stateMutability": "view",
      "type": "function"
    },
    {
      "constant": true,
      "inputs": [
        {
          "name": "",
          "type": "address"
        },
        {
          "name": "",
          "type": "uint256"
        }
      ],
      "name": "lendMap",
      "outputs": [
        {
          "name": "",
          "type": "uint256"
        }
      ],
      "payable": false,
      "stateMutability": "view",
      "type": "function"
    },
    {
      "inputs": [],
      "payable": false,
      "stateMutability": "nonpayable",
      "type": "constructor"
    },
    {
      "constant": false,
      "inputs": [
        {
          "name": "borrower",
          "type": "address"
        }
      ],
      "name": "hasActiveLoan",
      "outputs": [
        {
          "name": "",
          "type": "bool"
        }
      ],
      "payable": false,
      "stateMutability": "nonpayable",
      "type": "function"
    },
    {
      "constant": false,
      "inputs": [
        {
          "name": "amount",
          "type": "uint256"
        },
        {
          "name": "dueDate",
          "type": "uint256"
        },
        {
          "name": "mortgage",
          "type": "bytes32"
        }
      ],
      "name": "newLoan",
      "outputs": [],
      "payable": false,
      "stateMutability": "nonpayable",
      "type": "function"
    },
    {
      "constant": false,
      "inputs": [
        {
          "name": "loanId",
          "type": "uint256"
        },
        {
          "name": "rate",
          "type": "uint256"
        }
      ],
      "name": "newProposal",
      "outputs": [],
      "payable": true,
      "stateMutability": "payable",
      "type": "function"
    },
    {
      "constant": false,
      "inputs": [
        {
          "name": "borrower",
          "type": "address"
        }
      ],
      "name": "getActiveLoanId",
      "outputs": [
        {
          "name": "",
          "type": "uint256"
        }
      ],
      "payable": false,
      "stateMutability": "nonpayable",
      "type": "function"
    },
    {
      "constant": false,
      "inputs": [
        {
          "name": "id",
          "type": "uint256"
        }
      ],
      "name": "revokeMyProposal",
      "outputs": [],
      "payable": false,
      "stateMutability": "nonpayable",
      "type": "function"
    },
    {
      "constant": false,
      "inputs": [
        {
          "name": "loanId",
          "type": "uint256"
        }
      ],
      "name": "lockLoan",
      "outputs": [],
      "payable": false,
      "stateMutability": "nonpayable",
      "type": "function"
    },
    {
      "constant": false,
      "inputs": [
        {
          "name": "loanId",
          "type": "uint256"
        }
      ],
      "name": "getRepayValue",
      "outputs": [
        {
          "name": "",
          "type": "uint256"
        }
      ],
      "payable": false,
      "stateMutability": "nonpayable",
      "type": "function"
    },
    {
      "constant": false,
      "inputs": [
        {
          "name": "loanId",
          "type": "uint256"
        }
      ],
      "name": "repayLoan",
      "outputs": [],
      "payable": true,
      "stateMutability": "payable",
      "type": "function"
    },
    {
      "constant": false,
      "inputs": [
        {
          "name": "proposeId",
          "type": "uint256"
        }
      ],
      "name": "acceptProposal",
      "outputs": [],
      "payable": false,
      "stateMutability": "nonpayable",
      "type": "function"
    },
    {
      "constant": false,
      "inputs": [
        {
          "name": "lender",
          "type": "address"
        }
      ],
      "name": "totalProposalsBy",
      "outputs": [
        {
          "name": "",
          "type": "uint256"
        }
      ],
      "payable": false,
      "stateMutability": "nonpayable",
      "type": "function"
    },
    {
      "constant": false,
      "inputs": [
        {
          "name": "lender",
          "type": "address"
        },
        {
          "name": "pos",
          "type": "uint256"
        }
      ],
      "name": "getProposalAtPosFor",
      "outputs": [
        {
          "name": "",
          "type": "address"
        },
        {
          "name": "",
          "type": "uint256"
        },
        {
          "name": "",
          "type": "uint8"
        },
        {
          "name": "",
          "type": "uint256"
        },
        {
          "name": "",
          "type": "uint256"
        },
        {
          "name": "",
          "type": "uint256"
        },
        {
          "name": "",
          "type": "uint256"
        },
        {
          "name": "",
          "type": "bytes32"
        }
      ],
      "payable": false,
      "stateMutability": "nonpayable",
      "type": "function"
    },
    {
      "constant": false,
      "inputs": [
        {
          "name": "borrower",
          "type": "address"
        }
      ],
      "name": "totalLoansBy",
      "outputs": [
        {
          "name": "",
          "type": "uint256"
        }
      ],
      "payable": false,
      "stateMutability": "nonpayable",
      "type": "function"
    },
    {
      "constant": false,
      "inputs": [
        {
          "name": "borrower",
          "type": "address"
        },
        {
          "name": "pos",
          "type": "uint256"
        }
      ],
      "name": "getLoanDetailsByAddressPosition",
      "outputs": [
        {
          "name": "",
          "type": "uint8"
        },
        {
          "name": "",
          "type": "uint256"
        },
        {
          "name": "",
          "type": "uint256"
        },
        {
          "name": "",
          "type": "uint256"
        },
        {
          "name": "",
          "type": "uint256"
        },
        {
          "name": "",
          "type": "bytes32"
        }
      ],
      "payable": false,
      "stateMutability": "nonpayable",
      "type": "function"
    },
    {
      "constant": false,
      "inputs": [
        {
          "name": "borrower",
          "type": "address"
        }
      ],
      "name": "getLastLoanState",
      "outputs": [
        {
          "name": "",
          "type": "uint8"
        }
      ],
      "payable": false,
      "stateMutability": "nonpayable",
      "type": "function"
    },
    {
      "constant": false,
      "inputs": [
        {
          "name": "borrower",
          "type": "address"
        }
      ],
      "name": "getLastLoanDetails",
      "outputs": [
        {
          "name": "",
          "type": "uint8"
        },
        {
          "name": "",
          "type": "uint256"
        },
        {
          "name": "",
          "type": "uint256"
        },
        {
          "name": "",
          "type": "uint256"
        },
        {
          "name": "",
          "type": "uint256"
        }
      ],
      "payable": false,
      "stateMutability": "nonpayable",
      "type": "function"
    },
    {
      "constant": false,
      "inputs": [
        {
          "name": "loanId",
          "type": "uint256"
        },
        {
          "name": "numI",
          "type": "uint256"
        }
      ],
      "name": "getProposalDetailsByLoanIdPosition",
      "outputs": [
        {
          "name": "",
          "type": "uint8"
        },
        {
          "name": "",
          "type": "uint256"
        },
        {
          "name": "",
          "type": "uint256"
        },
        {
          "name": "",
          "type": "uint256"
        },
        {
          "name": "",
          "type": "address"
        }
      ],
      "payable": false,
      "stateMutability": "nonpayable",
      "type": "function"
    },
    {
      "constant": false,
      "inputs": [],
      "name": "numTotalLoans",
      "outputs": [
        {
          "name": "",
          "type": "uint256"
        }
      ],
      "payable": false,
      "stateMutability": "nonpayable",
      "type": "function"
    }
  ],
  "bytecode": "0x608060405234801561001057600080fd5b50336000806101000a81548173ffffffffffffffffffffffffffffffffffffffff021916908373ffffffffffffffffffffffffffffffffffffffff160217905550612a3a806100606000396000f300608060405260043610610128576000357c0100000000000000000000000000000000000000000000000000000000900463ffffffff168063052065df1461012d5780630b278f72146101c75780631594a313146102085780631801f00f1461026957806321d4f8db14610293578063277411d2146102ee57806360c5cc3a146103c257806363e84648146103ef5780637621710c146104905780638a190636146105445780638cad507d146105c55780638da5cb5b146105f057806398325656146106475780639ce9cc561461069e578063a180f61b146106cb578063ab7b1c89146106f8578063ac51ba9614610718578063bad9e65a1461076f578063c6311e3f146107d4578063e24afbb61461086b578063faa72d63146108c2578063fccd238c14610923575b600080fd5b34801561013957600080fd5b50610178600480360381019080803573ffffffffffffffffffffffffffffffffffffffff16906020019092919080359060200190929190505050610968565b6040518087600381111561018857fe5b60ff1681526020018681526020018581526020018481526020018381526020018260001916600019168152602001965050505050505060405180910390f35b3480156101d357600080fd5b506101f260048036038101908080359060200190929190505050610b49565b6040518082815260200191505060405180910390f35b34801561021457600080fd5b50610253600480360381019080803573ffffffffffffffffffffffffffffffffffffffff16906020019092919080359060200190929190505050610d11565b6040518082815260200191505060405180910390f35b6102916004803603810190808035906020019092919080359060200190929190505050610d41565b005b34801561029f57600080fd5b506102d4600480360381019080803573ffffffffffffffffffffffffffffffffffffffff169060200190929190505050611018565b604051808215151515815260200191505060405180910390f35b3480156102fa57600080fd5b50610339600480360381019080803573ffffffffffffffffffffffffffffffffffffffff16906020019092919080359060200190929190505050611280565b604051808973ffffffffffffffffffffffffffffffffffffffff1673ffffffffffffffffffffffffffffffffffffffff16815260200188815260200187600281111561038157fe5b60ff16815260200186815260200185815260200184815260200183815260200182600019166000191681526020019850505050505050505060405180910390f35b3480156103ce57600080fd5b506103ed6004803603810190808035906020019092919050505061145c565b005b3480156103fb57600080fd5b506104246004803603810190808035906020019092919080359060200190929190505050611732565b6040518086600281111561043457fe5b60ff1681526020018581526020018481526020018381526020018273ffffffffffffffffffffffffffffffffffffffff1673ffffffffffffffffffffffffffffffffffffffff1681526020019550505050505060405180910390f35b34801561049c57600080fd5b506104bb6004803603810190808035906020019092919050505061189a565b604051808973ffffffffffffffffffffffffffffffffffffffff1673ffffffffffffffffffffffffffffffffffffffff1681526020018860038111156104fd57fe5b60ff16815260200187815260200186815260200185815260200184815260200183815260200182600019166000191681526020019850505050505050505060405180910390f35b34801561055057600080fd5b50610585600480360381019080803573ffffffffffffffffffffffffffffffffffffffff16906020019092919050505061191e565b6040518086600381111561059557fe5b60ff1681526020018581526020018481526020018381526020018281526020019550505050505060405180910390f35b3480156105d157600080fd5b506105da611aee565b6040518082815260200191505060405180910390f35b3480156105fc57600080fd5b50610605611afb565b604051808273ffffffffffffffffffffffffffffffffffffffff1673ffffffffffffffffffffffffffffffffffffffff16815260200191505060405180910390f35b34801561065357600080fd5b50610688600480360381019080803573ffffffffffffffffffffffffffffffffffffffff169060200190929190505050611b20565b6040518082815260200191505060405180910390f35b3480156106aa57600080fd5b506106c960048036038101908080359060200190929190505050611c47565b005b3480156106d757600080fd5b506106f660048036038101908080359060200190929190505050611f8f565b005b6107166004803603810190808035906020019092919050505061223e565b005b34801561072457600080fd5b50610759600480360381019080803573ffffffffffffffffffffffffffffffffffffffff16906020019092919050505061255b565b6040518082815260200191505060405180910390f35b34801561077b57600080fd5b506107b0600480360381019080803573ffffffffffffffffffffffffffffffffffffffff1690602001909291905050506125a7565b604051808260038111156107c057fe5b60ff16815260200191505060405180910390f35b3480156107e057600080fd5b506107ff60048036038101908080359060200190929190505050612691565b604051808673ffffffffffffffffffffffffffffffffffffffff1673ffffffffffffffffffffffffffffffffffffffff16815260200185815260200184600281111561084757fe5b60ff1681526020018381526020018281526020019550505050505060405180910390f35b34801561087757600080fd5b506108ac600480360381019080803573ffffffffffffffffffffffffffffffffffffffff169060200190929190505050612703565b6040518082815260200191505060405180910390f35b3480156108ce57600080fd5b5061090d600480360381019080803573ffffffffffffffffffffffffffffffffffffffff1690602001909291908035906020019092919050505061274f565b6040518082815260200191505060405180910390f35b34801561092f57600080fd5b506109666004803603810190808035906020019092919080359060200190929190803560001916906020019092919050505061277f565b005b600080600080600080610979612953565b6001600360008b73ffffffffffffffffffffffffffffffffffffffff1673ffffffffffffffffffffffffffffffffffffffff168152602001908152602001600020898154811015156109c757fe5b90600052602060002001548154811015156109de57fe5b906000526020600020906008020161010060405190810160405290816000820160009054906101000a900473ffffffffffffffffffffffffffffffffffffffff1673ffffffffffffffffffffffffffffffffffffffff1673ffffffffffffffffffffffffffffffffffffffff1681526020016000820160149054906101000a900460ff166003811115610a6d57fe5b6003811115610a7857fe5b81526020016001820154815260200160028201548152602001600382015481526020016004820154815260200160058201548152602001600682015460001916600019168152505090508060200151816040015182606001518360a00151600360008e73ffffffffffffffffffffffffffffffffffffffff1673ffffffffffffffffffffffffffffffffffffffff1681526020019081526020016000208c815481101515610b2257fe5b90600052602060002001548560e00151965096509650965096509650509295509295509295565b600080600080600080600080600060016003811115610b6457fe5b60018b815481101515610b7357fe5b906000526020600020906008020160000160149054906101000a900460ff166003811115610b9d57fe5b1415610cf85760018a815481101515610bb257fe5b906000526020600020906008020160050154975060009650600095505b60018a815481101515610bde57fe5b906000526020600020906008020160030154861015610cf05760018a815481101515610c0657fe5b9060005260206000209060080201600701600087815260200190815260200160002054945060016002811115610c3857fe5b600286815481101515610c4757fe5b906000526020600020906005020160020160009054906101000a900460ff166002811115610c7157fe5b1415610ce357600285815481101515610c8657fe5b9060005260206000209060050201600401549350600285815481101515610ca957fe5b906000526020600020906005020160030154925042915063bbf81e0088830384860202811515610cd557fe5b049050808701965083870196505b8580600101965050610bcf565b869850610d04565b67ffffffffffffffff98505b5050505050505050919050565b600360205281600052604060002081815481101515610d2c57fe5b90600052602060002001600091509150505481565b600073ffffffffffffffffffffffffffffffffffffffff16600183815481101515610d6857fe5b906000526020600020906008020160000160009054906101000a900473ffffffffffffffffffffffffffffffffffffffff1673ffffffffffffffffffffffffffffffffffffffff161480610e00575060006003811115610dc457fe5b600183815481101515610dd357fe5b906000526020600020906008020160000160149054906101000a900460ff166003811115610dfd57fe5b14155b15610e0a57611014565b600260a0604051908101604052803373ffffffffffffffffffffffffffffffffffffffff16815260200184815260200160006002811115610e4757fe5b8152602001838152602001348152509080600181540180825580915050906001820390600052602060002090600502016000909192909190915060008201518160000160006101000a81548173ffffffffffffffffffffffffffffffffffffffff021916908373ffffffffffffffffffffffffffffffffffffffff1602179055506020820151816001015560408201518160020160006101000a81548160ff02191690836002811115610ef657fe5b02179055506060820151816003015560808201518160040155505050600460003373ffffffffffffffffffffffffffffffffffffffff1673ffffffffffffffffffffffffffffffffffffffff1681526020019081526020016000206001600280549050039080600181540180825580915050906001820390600052602060002001600090919290919091505550600182815481101515610f9257fe5b906000526020600020906008020160030160008154809291906001019190505550600160028054905003600183815481101515610fcb57fe5b9060005260206000209060080201600701600060018086815481101515610fee57fe5b906000526020600020906008020160030154038152602001908152602001600020819055505b5050565b600080611023612953565b600360008573ffffffffffffffffffffffffffffffffffffffff1673ffffffffffffffffffffffffffffffffffffffff168152602001908152602001600020805490509150600082141561107a5760009250611279565b6001600360008673ffffffffffffffffffffffffffffffffffffffff1673ffffffffffffffffffffffffffffffffffffffff168152602001908152602001600020600184038154811015156110cb57fe5b90600052602060002001548154811015156110e257fe5b906000526020600020906008020161010060405190810160405290816000820160009054906101000a900473ffffffffffffffffffffffffffffffffffffffff1673ffffffffffffffffffffffffffffffffffffffff1673ffffffffffffffffffffffffffffffffffffffff1681526020016000820160149054906101000a900460ff16600381111561117157fe5b600381111561117c57fe5b8152602001600182015481526020016002820154815260200160038201548152602001600482015481526020016005820154815260200160068201546000191660001916815250509050600060038111156111d357fe5b60018084038154811015156111e457fe5b906000526020600020906008020160000160149054906101000a900460ff16600381111561120e57fe5b141561121d5760019250611279565b6001600381111561122a57fe5b600180840381548110151561123b57fe5b906000526020600020906008020160000160149054906101000a900460ff16600381111561126557fe5b14156112745760019250611279565b600092505b5050919050565b6000806000806000806000806112946129bd565b6002600460008d73ffffffffffffffffffffffffffffffffffffffff1673ffffffffffffffffffffffffffffffffffffffff1681526020019081526020016000208b8154811015156112e257fe5b90600052602060002001548154811015156112f957fe5b906000526020600020906005020160a060405190810160405290816000820160009054906101000a900473ffffffffffffffffffffffffffffffffffffffff1673ffffffffffffffffffffffffffffffffffffffff1673ffffffffffffffffffffffffffffffffffffffff168152602001600182015481526020016002820160009054906101000a900460ff16600281111561139157fe5b600281111561139c57fe5b815260200160038201548152602001600482015481525050905080600001518160200151826040015183606001518460800151600186602001518154811015156113e257fe5b9060005260206000209060080201600201546001876020015181548110151561140757fe5b9060005260206000209060080201600101546001886020015181548110151561142c57fe5b90600052602060002090600802016006015498509850985098509850985098509850509295985092959890939650565b60006114666129bd565b61146e612953565b61147733611b20565b925067ffffffffffffffff83141561148e5761172c565b60028481548110151561149d57fe5b906000526020600020906005020160a060405190810160405290816000820160009054906101000a900473ffffffffffffffffffffffffffffffffffffffff1673ffffffffffffffffffffffffffffffffffffffff1673ffffffffffffffffffffffffffffffffffffffff168152602001600182015481526020016002820160009054906101000a900460ff16600281111561153557fe5b600281111561154057fe5b81526020016003820154815260200160048201548152505091506000600281111561156757fe5b8260400151600281111561157757fe5b1415156115835761172c565b60018381548110151561159257fe5b906000526020600020906008020161010060405190810160405290816000820160009054906101000a900473ffffffffffffffffffffffffffffffffffffffff1673ffffffffffffffffffffffffffffffffffffffff1673ffffffffffffffffffffffffffffffffffffffff1681526020016000820160149054906101000a900460ff16600381111561162157fe5b600381111561162c57fe5b81526020016001820154815260200160028201548152602001600382015481526020016004820154815260200160058201548152602001600682015460001916600019168152505090506000600381111561168357fe5b8160200151600381111561169357fe5b14151561169f5761172c565b806060015182608001518260a001510111151561172b5781608001516001848154811015156116ca57fe5b90600052602060002090600802016004016000828254019250508190555060016002858154811015156116f957fe5b906000526020600020906005020160020160006101000a81548160ff0219169083600281111561172557fe5b02179055505b5b50505050565b60008060008060006117426129bd565b600260018981548110151561175357fe5b906000526020600020906008020160070160008981526020019081526020016000205481548110151561178257fe5b906000526020600020906005020160a060405190810160405290816000820160009054906101000a900473ffffffffffffffffffffffffffffffffffffffff1673ffffffffffffffffffffffffffffffffffffffff1673ffffffffffffffffffffffffffffffffffffffff168152602001600182015481526020016002820160009054906101000a900460ff16600281111561181a57fe5b600281111561182557fe5b815260200160038201548152602001600482015481525050905080604001518160600151826080015160018b81548110151561185d57fe5b906000526020600020906008020160070160008b815260200190815260200160002054846000015195509550955095509550509295509295909350565b6001818154811015156118a957fe5b90600052602060002090600802016000915090508060000160009054906101000a900473ffffffffffffffffffffffffffffffffffffffff16908060000160149054906101000a900460ff16908060010154908060020154908060030154908060040154908060050154908060060154905088565b60008060008060008061192f612953565b600360008973ffffffffffffffffffffffffffffffffffffffff1673ffffffffffffffffffffffffffffffffffffffff1681526020019081526020016000208054905091506001600360008a73ffffffffffffffffffffffffffffffffffffffff1673ffffffffffffffffffffffffffffffffffffffff168152602001908152602001600020600184038154811015156119c557fe5b90600052602060002001548154811015156119dc57fe5b906000526020600020906008020161010060405190810160405290816000820160009054906101000a900473ffffffffffffffffffffffffffffffffffffffff1673ffffffffffffffffffffffffffffffffffffffff1673ffffffffffffffffffffffffffffffffffffffff1681526020016000820160149054906101000a900460ff166003811115611a6b57fe5b6003811115611a7657fe5b815260200160018201548152602001600282015481526020016003820154815260200160048201548152602001600582015481526020016006820154600019166000191681525050905080602001518160400151826060015183608001518460a0015196509650965096509650505091939590929450565b6000600180549050905090565b6000809054906101000a900473ffffffffffffffffffffffffffffffffffffffff1681565b6000806000600360008573ffffffffffffffffffffffffffffffffffffffff1673ffffffffffffffffffffffffffffffffffffffff1681526020019081526020016000208054905091506000821415611b835767ffffffffffffffff9250611c40565b600360008573ffffffffffffffffffffffffffffffffffffffff1673ffffffffffffffffffffffffffffffffffffffff16815260200190815260200160002060018303815481101515611bd257fe5b9060005260206000200154905060006003811115611bec57fe5b600182815481101515611bfb57fe5b906000526020600020906008020160000160149054906101000a900460ff166003811115611c2557fe5b141515611c3c5767ffffffffffffffff9250611c40565b8092505b5050919050565b600080600080600460003373ffffffffffffffffffffffffffffffffffffffff1673ffffffffffffffffffffffffffffffffffffffff16815260200190815260200160002085815481101515611c9957fe5b9060005260206000200154935060006002811115611cb357fe5b600285815481101515611cc257fe5b906000526020600020906005020160020160009054906101000a900460ff166002811115611cec57fe5b141515611cf857611f88565b600284815481101515611d0757fe5b906000526020600020906005020160010154925060006003811115611d2857fe5b600184815481101515611d3757fe5b906000526020600020906008020160000160149054906101000a900460ff166003811115611d6157fe5b1415611e145760028085815481101515611d7757fe5b906000526020600020906005020160020160006101000a81548160ff02191690836002811115611da357fe5b02179055503373ffffffffffffffffffffffffffffffffffffffff166108fc600286815481101515611dd157fe5b9060005260206000209060050201600401549081150290604051600060405180830381858888f19350505050158015611e0e573d6000803e3d6000fd5b50611f87565b60016003811115611e2157fe5b600184815481101515611e3057fe5b906000526020600020906008020160000160149054906101000a900460ff166003811115611e5a57fe5b1415611f865742600184815481101515611e7057fe5b9060005260206000209060080201600101541015611e8d57611f88565b6003600184815481101515611e9e57fe5b906000526020600020906008020160000160146101000a81548160ff02191690836003811115611eca57fe5b0217905550600091505b600183815481101515611ee357fe5b906000526020600020906008020160030154821015611f8557600183815481101515611f0b57fe5b9060005260206000209060080201600701600083815260200190815260200160002054905060016002811115611f3d57fe5b600282815481101515611f4c57fe5b906000526020600020906005020160020160009054906101000a900460ff166002811115611f7657fe5b50508180600101925050611ed4565b5b5b5b5050505050565b60008060006003811115611f9f57fe5b600184815481101515611fae57fe5b906000526020600020906008020160000160149054906101000a900460ff166003811115611fd857fe5b14156122335760018084815481101515611fee57fe5b906000526020600020906008020160000160146101000a81548160ff0219169083600381111561201a57fe5b0217905550600091505b60018381548110151561203357fe5b90600052602060002090600802016003015482101561222e5760018381548110151561205b57fe5b906000526020600020906008020160070160008381526020019081526020016000205490506001600281111561208d57fe5b60028281548110151561209c57fe5b906000526020600020906005020160020160009054906101000a900460ff1660028111156120c657fe5b1415612138573373ffffffffffffffffffffffffffffffffffffffff166108fc6002838154811015156120f557fe5b9060005260206000209060050201600401549081150290604051600060405180830381858888f19350505050158015612132573d6000803e3d6000fd5b50612221565b6002808281548110151561214857fe5b906000526020600020906005020160020160006101000a81548160ff0219169083600281111561217457fe5b021790555060028181548110151561218857fe5b906000526020600020906005020160000160009054906101000a900473ffffffffffffffffffffffffffffffffffffffff1673ffffffffffffffffffffffffffffffffffffffff166108fc6002838154811015156121e257fe5b9060005260206000209060050201600401549081150290604051600060405180830381858888f1935050505015801561221f573d6000803e3d6000fd5b505b8180600101925050612024565b612238565b612239565b5b505050565b6000806000806000806000806000806000429a5061225b8c610b49565b995060018c81548110151561226c57fe5b90600052602060002090600802016005015498503497508988101515612505578988039650600260018d8154811015156122a257fe5b906000526020600020906008020160000160146101000a81548160ff021916908360038111156122ce57fe5b0217905550600095505b60018c8154811015156122e757fe5b9060005260206000209060080201600301548610156124b95760018c81548110151561230f57fe5b906000526020600020906008020160070160008781526020019081526020016000205494506001600281111561234157fe5b60028681548110151561235057fe5b906000526020600020906005020160020160009054906101000a900460ff16600281111561237a57fe5b14156124ac5760028581548110151561238f57fe5b90600052602060002090600502016004015493506002858154811015156123b257fe5b906000526020600020906005020160030154925063bbf81e00898c03848602028115156123db57fe5b04915083820190506002858154811015156123f257fe5b906000526020600020906005020160000160009054906101000a900473ffffffffffffffffffffffffffffffffffffffff1673ffffffffffffffffffffffffffffffffffffffff166108fc829081150290604051600060405180830381858888f19350505050158015612469573d6000803e3d6000fd5b506002808681548110151561247a57fe5b906000526020600020906005020160020160006101000a81548160ff021916908360028111156124a657fe5b02179055505b85806001019650506122d8565b3373ffffffffffffffffffffffffffffffffffffffff166108fc889081150290604051600060405180830381858888f193505050501580156124ff573d6000803e3d6000fd5b5061254d565b3373ffffffffffffffffffffffffffffffffffffffff166108fc899081150290604051600060405180830381858888f1935050505015801561254b573d6000803e3d6000fd5b505b505050505050505050505050565b6000600460008373ffffffffffffffffffffffffffffffffffffffff1673ffffffffffffffffffffffffffffffffffffffff168152602001908152602001600020805490509050919050565b600080600360008473ffffffffffffffffffffffffffffffffffffffff1673ffffffffffffffffffffffffffffffffffffffff1681526020019081526020016000208054905090506000811415612601576002915061268b565b6001600360008573ffffffffffffffffffffffffffffffffffffffff1673ffffffffffffffffffffffffffffffffffffffff1681526020019081526020016000206001830381548110151561265257fe5b906000526020600020015481548110151561266957fe5b906000526020600020906008020160000160149054906101000a900460ff1691505b50919050565b6002818154811015156126a057fe5b90600052602060002090600502016000915090508060000160009054906101000a900473ffffffffffffffffffffffffffffffffffffffff16908060010154908060020160009054906101000a900460ff16908060030154908060040154905085565b6000600360008373ffffffffffffffffffffffffffffffffffffffff1673ffffffffffffffffffffffffffffffffffffffff168152602001908152602001600020805490509050919050565b60046020528160005260406000208181548110151561276a57fe5b90600052602060002001600091509150505481565b600061278a33611018565b156127945761294d565b4290506001610100604051908101604052803373ffffffffffffffffffffffffffffffffffffffff168152602001600060038111156127cf57fe5b8152602001858152602001868152602001600081526020016000815260200183815260200184600019168152509080600181540180825580915050906001820390600052602060002090600802016000909192909190915060008201518160000160006101000a81548173ffffffffffffffffffffffffffffffffffffffff021916908373ffffffffffffffffffffffffffffffffffffffff16021790555060208201518160000160146101000a81548160ff0219169083600381111561289257fe5b021790555060408201518160010155606082015181600201556080820151816003015560a0820151816004015560c0820151816005015560e08201518160060190600019169055505050600360003373ffffffffffffffffffffffffffffffffffffffff1673ffffffffffffffffffffffffffffffffffffffff168152602001908152602001600020600180805490500390806001815401808255809150509060018203906000526020600020016000909192909190915055505b50505050565b61010060405190810160405280600073ffffffffffffffffffffffffffffffffffffffff1681526020016000600381111561298a57fe5b81526020016000815260200160008152602001600081526020016000815260200160008152602001600080191681525090565b60a060405190810160405280600073ffffffffffffffffffffffffffffffffffffffff16815260200160008152602001600060028111156129fa57fe5b8152602001600081526020016000815250905600a165627a7a7230582017c350f3e793432cd06aeccef56d0280c07fe9a13b67baf7b92060c95cd895940029",
  "source": "pragma solidity ^0.4.0;\ncontract CrowdBank {\n    \n    address public owner;\n    \n    enum ProposalState {\n        WAITING,\n        ACCEPTED,\n        REPAID\n    }\n\n    struct Proposal {\n        address lender;\n        uint loanId;\n        ProposalState state;\n        uint rate;\n        uint amount;\n    }\n    \n    enum LoanState {\n        ACCEPTING,\n        LOCKED,\n        SUCCESSFUL,\n        FAILED\n    }\n    \n    struct Loan {\n        address borrower;\n        LoanState state;\n        uint dueDate;\n        uint amount;\n        uint proposalCount;\n        uint collected;\n        uint startDate;\n        bytes32 mortgage;\n        mapping (uint=>uint) proposal;\n    }\n\n    Loan[] public loanList;\n    Proposal[] public proposalList;\n\n    mapping (address=>uint[]) public loanMap;\n    mapping (address=>uint[]) public lendMap;\n\n    constructor() public {\n        owner = msg.sender;\n    }\n\n    function hasActiveLoan(address borrower) public returns(bool) {\n        uint validLoans = loanMap[borrower].length;\n        if(validLoans == 0) return false;\n         Loan memory obj = loanList[loanMap[borrower][validLoans-1]];\n        if(loanList[validLoans-1].state == LoanState.ACCEPTING) return true;\n        if(loanList[validLoans-1].state == LoanState.LOCKED) return true;\n        return false;\n    }\n    \n    function newLoan(uint amount, uint dueDate, bytes32 mortgage) public {\n        if(hasActiveLoan(msg.sender)) return;\n        uint currentDate = block.timestamp;\n        loanList.push(Loan(msg.sender, LoanState.ACCEPTING, dueDate, amount, 0, 0, currentDate, mortgage));\n        loanMap[msg.sender].push(loanList.length-1);\n    }\n\n    function newProposal(uint loanId, uint rate) public payable {\n        if(loanList[loanId].borrower == address(0) || loanList[loanId].state != LoanState.ACCEPTING)\n            return;\n        proposalList.push(Proposal(msg.sender, loanId, ProposalState.WAITING, rate, msg.value));\n        lendMap[msg.sender].push(proposalList.length-1);\n        loanList[loanId].proposalCount++;\n        loanList[loanId].proposal[loanList[loanId].proposalCount-1] = proposalList.length-1;\n    }\n\n    function getActiveLoanId(address borrower) public returns(uint) {\n        uint numLoans = loanMap[borrower].length;\n        if(numLoans == 0) return (2**64 - 1);\n        uint lastLoanId = loanMap[borrower][numLoans-1];\n        if(loanList[lastLoanId].state != LoanState.ACCEPTING) return (2**64 - 1);\n        return lastLoanId;\n    }\n\n    function revokeMyProposal(uint id) public {        \n        uint proposeId = lendMap[msg.sender][id];\n        if(proposalList[proposeId].state != ProposalState.WAITING) return;\n        uint loanId = proposalList[proposeId].loanId;\n        if(loanList[loanId].state == LoanState.ACCEPTING) {\n            // Lender wishes to revoke his ETH when proposal is still WAITING\n            proposalList[proposeId].state = ProposalState.REPAID;\n            msg.sender.transfer(proposalList[proposeId].amount);\n        }\n        else if(loanList[loanId].state == LoanState.LOCKED) {\n            // The loan is locked/accepting and the due date passed : transfer the mortgage\n            if(loanList[loanId].dueDate < now) return;\n            loanList[loanId].state = LoanState.FAILED;\n            for(uint i = 0; i < loanList[loanId].proposalCount; i++) {\n                uint numI = loanList[loanId].proposal[i];\n                if(proposalList[numI].state == ProposalState.ACCEPTED) {\n                    // transfer mortgage \n                }\n            } \n        }\n    }\n\n    function lockLoan(uint loanId) public {\n        //contract will send money to msg.sender\n        //states of proposals would be finalized, not accepted proposals would be reimbursed\n        if(loanList[loanId].state == LoanState.ACCEPTING)\n        {\n          loanList[loanId].state = LoanState.LOCKED;\n          for(uint i = 0; i < loanList[loanId].proposalCount; i++)\n          {\n            uint numI = loanList[loanId].proposal[i];\n            if(proposalList[numI].state == ProposalState.ACCEPTED)\n            {\n              msg.sender.transfer(proposalList[numI].amount); //Send to borrower\n            }\n            else\n            {\n              proposalList[numI].state = ProposalState.REPAID;\n              address(uint160(proposalList[numI].lender)).transfer(proposalList[numI].amount); //Send back to lender\n            }\n          }\n        }\n        else\n          return;\n    }\n    \n    //Amount to be Repaid\n    function getRepayValue(uint loanId) public returns(uint) {\n        if(loanList[loanId].state == LoanState.LOCKED)\n        {\n          uint time = loanList[loanId].startDate;\n          uint finalamount = 0;\n          for(uint i = 0; i < loanList[loanId].proposalCount; i++)\n          {\n            uint numI = loanList[loanId].proposal[i];\n            if(proposalList[numI].state == ProposalState.ACCEPTED)\n            {\n              uint original = proposalList[numI].amount;\n              uint rate = proposalList[numI].rate;\n              uint now = block.timestamp;\n              uint interest = (original*rate*(now - time))/(365*24*60*60*100);\n              finalamount += interest;\n              finalamount += original;\n            }\n          }\n          return finalamount;\n        }\n        else\n          return (2**64 -1);\n    }\n\n    function repayLoan(uint loanId) public payable {\n      uint now = block.timestamp;\n      uint toBePaid = getRepayValue(loanId);\n      uint time = loanList[loanId].startDate;\n      uint paid = msg.value;\n      if(paid >= toBePaid)\n      {\n        uint remain = paid - toBePaid;\n        loanList[loanId].state = LoanState.SUCCESSFUL;\n        for(uint i = 0; i < loanList[loanId].proposalCount; i++)\n        {\n          uint numI = loanList[loanId].proposal[i];\n          if(proposalList[numI].state == ProposalState.ACCEPTED)\n          {\n            uint original = proposalList[numI].amount;\n            uint rate = proposalList[numI].rate;\n            uint interest = (original*rate*(now - time))/(365*24*60*60*100);\n            uint finalamount = interest + original;\n            address(uint160(proposalList[numI].lender)).transfer(finalamount);\n            proposalList[numI].state = ProposalState.REPAID;\n          }\n        }\n        msg.sender.transfer(remain);\n      }\n      else\n      {\n        msg.sender.transfer(paid);\n      }\n    }\n    \n    function acceptProposal(uint proposeId) public\n    {\n        uint loanId = getActiveLoanId(msg.sender); \n        if(loanId == (2**64 - 1)) return;\n        Proposal memory pObj = proposalList[proposeId];\n        if(pObj.state != ProposalState.WAITING) return;\n\n        Loan  memory lObj = loanList[loanId];\n        if(lObj.state != LoanState.ACCEPTING) return;\n\n        if(lObj.collected + pObj.amount <= lObj.amount)\n        {\n          loanList[loanId].collected += pObj.amount;\n          proposalList[proposeId].state = ProposalState.ACCEPTED;\n        }\n    }\n\n    function totalProposalsBy(address lender) public returns(uint) {\n        return lendMap[lender].length;\n    }\n\n    function getProposalAtPosFor(address lender, uint pos) public returns(address, uint, ProposalState, uint, uint, uint, uint, bytes32) {\n        Proposal  memory prop = proposalList[lendMap[lender][pos]];\n        return (prop.lender, prop.loanId, prop.state, prop.rate, prop.amount, loanList[prop.loanId].amount, loanList[prop.loanId].dueDate, loanList[prop.loanId].mortgage);\n    }\n\n// BORROWER ACTIONS AVAILABLE    \n\n    function totalLoansBy(address borrower) public returns(uint) {\n        return loanMap[borrower].length;\n    }\n\n    function getLoanDetailsByAddressPosition(address borrower, uint pos) public returns(LoanState, uint, uint, uint, uint,bytes32) {\n        Loan  memory obj = loanList[loanMap[borrower][pos]];\n        return (obj.state, obj.dueDate, obj.amount, obj.collected, loanMap[borrower][pos], obj.mortgage);\n    }\n\n    function getLastLoanState(address borrower) public returns(LoanState) {\n        uint loanLength = loanMap[borrower].length;\n        if(loanLength == 0)\n            return LoanState.SUCCESSFUL;\n        return loanList[loanMap[borrower][loanLength -1]].state;\n    }\n\n    function getLastLoanDetails(address borrower) public returns(LoanState, uint, uint, uint, uint) {\n        uint loanLength = loanMap[borrower].length;\n        Loan memory obj = loanList[loanMap[borrower][loanLength -1]];\n        return (obj.state, obj.dueDate, obj.amount, obj.proposalCount, obj.collected);\n    }\n\n    function getProposalDetailsByLoanIdPosition(uint loanId, uint numI) public returns(ProposalState, uint, uint, uint, address) {\n        Proposal memory obj = proposalList[loanList[loanId].proposal[numI]];\n        return (obj.state, obj.rate, obj.amount, loanList[loanId].proposal[numI],obj.lender);\n    }\n\n    function numTotalLoans() public returns(uint) {\n        return loanList.length;\n    }\n    \n}\n\n",
  "sourcePath": "/home/gaurav/WeLend-master/contracts/CrowdBank.sol",
  "compiler": {
    "name": "solc",
    "version": "0.4.24+commit.e67f0147.Emscripten.clang"
  },
  "schemaVersion": "2.0.1",
  "updatedAt": "2019-03-27T12:14:08.995Z"
}