{
  "contractName": "Mortgage",
  "abi": [
    {
      "constant": true,
      "inputs": [
        {
          "name": "",
          "type": "address"
        },
        {
          "name": "",
          "type": "uint256"
        }
      ],
      "name": "mortgageMap",
      "outputs": [
        {
          "name": "",
          "type": "bytes32"
        }
      ],
      "payable": false,
      "stateMutability": "view",
      "type": "function",
      "signature": "0x34646a58"
    },
    {
      "constant": true,
      "inputs": [],
      "name": "owner",
      "outputs": [
        {
          "name": "",
          "type": "address"
        }
      ],
      "payable": false,
      "stateMutability": "view",
      "type": "function",
      "signature": "0x8da5cb5b"
    },
    {
      "constant": true,
      "inputs": [
        {
          "name": "",
          "type": "bytes32"
        },
        {
          "name": "",
          "type": "uint256"
        }
      ],
      "name": "ownerMap",
      "outputs": [
        {
          "name": "",
          "type": "address"
        }
      ],
      "payable": false,
      "stateMutability": "view",
      "type": "function",
      "signature": "0x8fde4dcf"
    },
    {
      "inputs": [],
      "payable": false,
      "stateMutability": "nonpayable",
      "type": "constructor",
      "signature": "constructor"
    },
    {
      "constant": false,
      "inputs": [
        {
          "name": "document",
          "type": "bytes32"
        }
      ],
      "name": "addData",
      "outputs": [],
      "payable": false,
      "stateMutability": "nonpayable",
      "type": "function",
      "signature": "0x28af94c8"
    },
    {
      "constant": false,
      "inputs": [
        {
          "name": "person",
          "type": "address"
        }
      ],
      "name": "getMortgageCount",
      "outputs": [
        {
          "name": "",
          "type": "uint256"
        }
      ],
      "payable": false,
      "stateMutability": "nonpayable",
      "type": "function",
      "signature": "0x27cfca81"
    },
    {
      "constant": false,
      "inputs": [
        {
          "name": "hash",
          "type": "bytes32"
        }
      ],
      "name": "getOwnerCount",
      "outputs": [
        {
          "name": "",
          "type": "uint256"
        }
      ],
      "payable": false,
      "stateMutability": "nonpayable",
      "type": "function",
      "signature": "0xf258d183"
    },
    {
      "constant": false,
      "inputs": [
        {
          "name": "hash",
          "type": "bytes32"
        },
        {
          "name": "index",
          "type": "uint256"
        }
      ],
      "name": "getOwnerByPosition",
      "outputs": [
        {
          "name": "",
          "type": "address"
        }
      ],
      "payable": false,
      "stateMutability": "nonpayable",
      "type": "function",
      "signature": "0x37f51b42"
    }
  ],
  "bytecode": "0x608060405234801561001057600080fd5b50336000806101000a81548173ffffffffffffffffffffffffffffffffffffffff021916908373ffffffffffffffffffffffffffffffffffffffff16021790555061078e806100606000396000f3fe608060405260043610610083576000357c0100000000000000000000000000000000000000000000000000000000900463ffffffff16806327cfca811461008857806328af94c8146100ed57806334646a581461012857806337f51b42146101975780638da5cb5b1461021c5780638fde4dcf14610273578063f258d183146102f8575b600080fd5b34801561009457600080fd5b506100d7600480360360208110156100ab57600080fd5b81019080803573ffffffffffffffffffffffffffffffffffffffff169060200190929190505050610347565b6040518082815260200191505060405180910390f35b3480156100f957600080fd5b506101266004803603602081101561011057600080fd5b8101908080359060200190929190505050610393565b005b34801561013457600080fd5b506101816004803603604081101561014b57600080fd5b81019080803573ffffffffffffffffffffffffffffffffffffffff1690602001909291908035906020019092919050505061064b565b6040518082815260200191505060405180910390f35b3480156101a357600080fd5b506101da600480360360408110156101ba57600080fd5b81019080803590602001909291908035906020019092919050505061067b565b604051808273ffffffffffffffffffffffffffffffffffffffff1673ffffffffffffffffffffffffffffffffffffffff16815260200191505060405180910390f35b34801561022857600080fd5b506102316106d0565b604051808273ffffffffffffffffffffffffffffffffffffffff1673ffffffffffffffffffffffffffffffffffffffff16815260200191505060405180910390f35b34801561027f57600080fd5b506102b66004803603604081101561029657600080fd5b8101908080359060200190929190803590602001909291905050506106f5565b604051808273ffffffffffffffffffffffffffffffffffffffff1673ffffffffffffffffffffffffffffffffffffffff16815260200191505060405180910390f35b34801561030457600080fd5b506103316004803603602081101561031b57600080fd5b8101908080359060200190929190505050610742565b6040518082815260200191505060405180910390f35b6000600260008373ffffffffffffffffffffffffffffffffffffffff1673ffffffffffffffffffffffffffffffffffffffff168152602001908152602001600020805490509050919050565b60606001600083815260200190815260200160002080548060200260200160405190810160405280929190818152602001828054801561042857602002820191906000526020600020905b8160009054906101000a900473ffffffffffffffffffffffffffffffffffffffff1673ffffffffffffffffffffffffffffffffffffffff16815260200190600101908083116103de575b5050505050905060008090505b815181101561049d573373ffffffffffffffffffffffffffffffffffffffff16828281518110151561046357fe5b9060200190602002015173ffffffffffffffffffffffffffffffffffffffff161415610490575050610648565b8080600101915050610435565b600160008481526020019081526020016000203390806001815401808255809150509060018203906000526020600020016000909192909190916101000a81548173ffffffffffffffffffffffffffffffffffffffff021916908373ffffffffffffffffffffffffffffffffffffffff160217905550506000600260003373ffffffffffffffffffffffffffffffffffffffff1673ffffffffffffffffffffffffffffffffffffffff168152602001908152602001600020805490509050600091505b808210156105db5783600260003373ffffffffffffffffffffffffffffffffffffffff1673ffffffffffffffffffffffffffffffffffffffff168152602001908152602001600020838154811015156105b557fe5b906000526020600020015414156105ce57505050610648565b8180600101925050610560565b600260003373ffffffffffffffffffffffffffffffffffffffff1673ffffffffffffffffffffffffffffffffffffffff1681526020019081526020016000208490806001815401808255809150509060018203906000526020600020016000909192909190915055505050505b50565b60026020528160005260406000208181548110151561066657fe5b90600052602060002001600091509150505481565b6000600160008481526020019081526020016000208281548110151561069d57fe5b9060005260206000200160009054906101000a900473ffffffffffffffffffffffffffffffffffffffff16905092915050565b6000809054906101000a900473ffffffffffffffffffffffffffffffffffffffff1681565b60016020528160005260406000208181548110151561071057fe5b906000526020600020016000915091509054906101000a900473ffffffffffffffffffffffffffffffffffffffff1681565b60006001600083815260200190815260200160002080549050905091905056fea165627a7a72305820e82699a90658e278544996ffd068eb47df35f7da2445a4f6f7d435933ac6c1ea0029",
  "source": "pragma solidity ^0.5.0;\ncontract Mortgage {\n    \n  address public owner;\n\n  mapping (bytes32=>address[]) public ownerMap;\n  mapping (address=>bytes32[]) public mortgageMap;\n\n  constructor() public {\n      owner = msg.sender;\n  }\n  \n  function addData(bytes32 document) public {\n    address[] memory owners = ownerMap[document];\n    uint i;\n    for(i=0;i<owners.length; i++)\n    {\n      if(owners[i] == msg.sender)\n        return;\n    }\n    ownerMap[document].push(msg.sender);\n    uint count = mortgageMap[msg.sender].length;\n    for(i=0;i<count; i++)\n    {\n      if(mortgageMap[msg.sender][i] == document)\n        return;\n    }\n    mortgageMap[msg.sender].push(document);\n  }\n\n  function getMortgageCount(address person) public returns(uint) {\n    return mortgageMap[person].length;\n  }\n\n  function getOwnerCount(bytes32 hash) public returns(uint) {\n    return ownerMap[hash].length;\n  }\n  \n  function getOwnerByPosition(bytes32 hash,uint index) public returns(address) {\n    return ownerMap[hash][index];\n  }\n  \n  \n}\n\n",
  "sourcePath": "/home/gaurav/WeLend-master_office_backup/WeLend-master/contracts/Mortgage.sol",
  "compiler": {
    "name": "solc",
    "version": "0.5.0+commit.1d4f565a.Emscripten.clang"
  },
  "schemaVersion": "3.0.5",
  "updatedAt": "2019-03-27T16:22:07.854Z",
  "devdoc": {
    "methods": {}
  },
  "userdoc": {
    "methods": {}
  }
}