{
  "contractName": "Mortgage",
  "abi": [
    {
      "constant": true,
      "inputs": [
        {
          "name": "",
          "type": "address"
        },
        {
          "name": "",
          "type": "uint256"
        }
      ],
      "name": "mortgageMap",
      "outputs": [
        {
          "name": "",
          "type": "bytes32"
        }
      ],
      "payable": false,
      "stateMutability": "view",
      "type": "function"
    },
    {
      "constant": true,
      "inputs": [],
      "name": "owner",
      "outputs": [
        {
          "name": "",
          "type": "address"
        }
      ],
      "payable": false,
      "stateMutability": "view",
      "type": "function"
    },
    {
      "constant": true,
      "inputs": [
        {
          "name": "",
          "type": "bytes32"
        },
        {
          "name": "",
          "type": "uint256"
        }
      ],
      "name": "ownerMap",
      "outputs": [
        {
          "name": "",
          "type": "address"
        }
      ],
      "payable": false,
      "stateMutability": "view",
      "type": "function"
    },
    {
      "inputs": [],
      "payable": false,
      "stateMutability": "nonpayable",
      "type": "constructor"
    },
    {
      "constant": false,
      "inputs": [
        {
          "name": "document",
          "type": "bytes32"
        }
      ],
      "name": "addData",
      "outputs": [],
      "payable": false,
      "stateMutability": "nonpayable",
      "type": "function"
    },
    {
      "constant": false,
      "inputs": [
        {
          "name": "person",
          "type": "address"
        }
      ],
      "name": "getMortgageCount",
      "outputs": [
        {
          "name": "",
          "type": "uint256"
        }
      ],
      "payable": false,
      "stateMutability": "nonpayable",
      "type": "function"
    },
    {
      "constant": false,
      "inputs": [
        {
          "name": "hash",
          "type": "bytes32"
        }
      ],
      "name": "getOwnerCount",
      "outputs": [
        {
          "name": "",
          "type": "uint256"
        }
      ],
      "payable": false,
      "stateMutability": "nonpayable",
      "type": "function"
    },
    {
      "constant": false,
      "inputs": [
        {
          "name": "hash",
          "type": "bytes32"
        },
        {
          "name": "index",
          "type": "uint256"
        }
      ],
      "name": "getOwnerByPosition",
      "outputs": [
        {
          "name": "",
          "type": "address"
        }
      ],
      "payable": false,
      "stateMutability": "nonpayable",
      "type": "function"
    }
  ],
  "bytecode": "0x608060405234801561001057600080fd5b50336000806101000a81548173ffffffffffffffffffffffffffffffffffffffff021916908373ffffffffffffffffffffffffffffffffffffffff16021790555061077b806100606000396000f300608060405260043610610083576000357c0100000000000000000000000000000000000000000000000000000000900463ffffffff16806327cfca811461008857806328af94c8146100df57806334646a581461011057806337f51b42146101795780638da5cb5b146101f45780638fde4dcf1461024b578063f258d183146102c6575b600080fd5b34801561009457600080fd5b506100c9600480360381019080803573ffffffffffffffffffffffffffffffffffffffff16906020019092919050505061030b565b6040518082815260200191505060405180910390f35b3480156100eb57600080fd5b5061010e6004803603810190808035600019169060200190929190505050610357565b005b34801561011c57600080fd5b5061015b600480360381019080803573ffffffffffffffffffffffffffffffffffffffff16906020019092919080359060200190929190505050610628565b60405180826000191660001916815260200191505060405180910390f35b34801561018557600080fd5b506101b2600480360381019080803560001916906020019092919080359060200190929190505050610658565b604051808273ffffffffffffffffffffffffffffffffffffffff1673ffffffffffffffffffffffffffffffffffffffff16815260200191505060405180910390f35b34801561020057600080fd5b506102096106b5565b604051808273ffffffffffffffffffffffffffffffffffffffff1673ffffffffffffffffffffffffffffffffffffffff16815260200191505060405180910390f35b34801561025757600080fd5b506102846004803603810190808035600019169060200190929190803590602001909291905050506106da565b604051808273ffffffffffffffffffffffffffffffffffffffff1673ffffffffffffffffffffffffffffffffffffffff16815260200191505060405180910390f35b3480156102d257600080fd5b506102f56004803603810190808035600019169060200190929190505050610727565b6040518082815260200191505060405180910390f35b6000600260008373ffffffffffffffffffffffffffffffffffffffff1673ffffffffffffffffffffffffffffffffffffffff168152602001908152602001600020805490509050919050565b60606000806001600085600019166000191681526020019081526020016000208054806020026020016040519081016040528092919081815260200182805480156103f757602002820191906000526020600020905b8160009054906101000a900473ffffffffffffffffffffffffffffffffffffffff1673ffffffffffffffffffffffffffffffffffffffff16815260200190600101908083116103ad575b50505050509250600091505b8251821015610469573373ffffffffffffffffffffffffffffffffffffffff16838381518110151561043157fe5b9060200190602002015173ffffffffffffffffffffffffffffffffffffffff16141561045c57610622565b8180600101925050610403565b6001600085600019166000191681526020019081526020016000203390806001815401808255809150509060018203906000526020600020016000909192909190916101000a81548173ffffffffffffffffffffffffffffffffffffffff021916908373ffffffffffffffffffffffffffffffffffffffff16021790555050600260003373ffffffffffffffffffffffffffffffffffffffff1673ffffffffffffffffffffffffffffffffffffffff168152602001908152602001600020805490509050600091505b808210156105b2578360001916600260003373ffffffffffffffffffffffffffffffffffffffff1673ffffffffffffffffffffffffffffffffffffffff1681526020019081526020016000208381548110151561058b57fe5b90600052602060002001546000191614156105a557610622565b8180600101925050610532565b600260003373ffffffffffffffffffffffffffffffffffffffff1673ffffffffffffffffffffffffffffffffffffffff1681526020019081526020016000208490806001815401808255809150509060018203906000526020600020016000909192909190915090600019169055505b50505050565b60026020528160005260406000208181548110151561064357fe5b90600052602060002001600091509150505481565b60006001600084600019166000191681526020019081526020016000208281548110151561068257fe5b9060005260206000200160009054906101000a900473ffffffffffffffffffffffffffffffffffffffff16905092915050565b6000809054906101000a900473ffffffffffffffffffffffffffffffffffffffff1681565b6001602052816000526040600020818154811015156106f557fe5b906000526020600020016000915091509054906101000a900473ffffffffffffffffffffffffffffffffffffffff1681565b60006001600083600019166000191681526020019081526020016000208054905090509190505600a165627a7a7230582085853fde9e93699b75c7875f77881ead8262314967482a844b1b2117c2e1b9860029",
  "source": "pragma solidity ^0.4.0;\ncontract Mortgage {\n    \n  address public owner;\n\n  mapping (bytes32=>address[]) public ownerMap;\n  mapping (address=>bytes32[]) public mortgageMap;\n\n  constructor() public {\n      owner = msg.sender;\n  }\n  \n  function addData(bytes32 document) public {\n    address[] memory owners = ownerMap[document];\n    uint i;\n    for(i=0;i<owners.length; i++)\n    {\n      if(owners[i] == msg.sender)\n        return;\n    }\n    ownerMap[document].push(msg.sender);\n    uint count = mortgageMap[msg.sender].length;\n    for(i=0;i<count; i++)\n    {\n      if(mortgageMap[msg.sender][i] == document)\n        return;\n    }\n    mortgageMap[msg.sender].push(document);\n  }\n\n  function getMortgageCount(address person) public returns(uint) {\n    return mortgageMap[person].length;\n  }\n\n  function getOwnerCount(bytes32 hash) public returns(uint) {\n    return ownerMap[hash].length;\n  }\n  \n  function getOwnerByPosition(bytes32 hash,uint index) public returns(address) {\n    return ownerMap[hash][index];\n  }\n  \n  \n}\n\n",
  "sourcePath": "/home/gaurav/WeLend-master/contracts/Mortgage.sol",
  "compiler": {
    "name": "solc",
    "version": "0.4.24+commit.e67f0147.Emscripten.clang"
  },
  "schemaVersion": "2.0.1",
  "updatedAt": "2019-03-27T12:14:08.983Z"
}